{
  "_format": "hh-sol-artifact-1",
  "contractName": "SkarbnikBadges",
  "sourceName": "contracts/SkarbnikBadges.sol",
  "abi": [
    {
      "inputs": [
        {
          "internalType": "string",
          "name": "baseMetadataURI_",
          "type": "string"
        }
      ],
      "stateMutability": "nonpayable",
      "type": "constructor"
    },
    {
      "inputs": [
        {
          "internalType": "address",
          "name": "user",
          "type": "address"
        },
        {
          "internalType": "uint256",
          "name": "badgeId",
          "type": "uint256"
        }
      ],
      "name": "BadgeAlreadyOwned",
      "type": "error"
    },
    {
      "inputs": [
        {
          "internalType": "address",
          "name": "sender",
          "type": "address"
        },
        {
          "internalType": "uint256",
          "name": "balance",
          "type": "uint256"
        },
        {
          "internalType": "uint256",
          "name": "needed",
          "type": "uint256"
        },
        {
          "internalType": "uint256",
          "name": "tokenId",
          "type": "uint256"
        }
      ],
      "name": "ERC1155InsufficientBalance",
      "type": "error"
    },
    {
      "inputs": [
        {
          "internalType": "address",
          "name": "approver",
          "type": "address"
        }
      ],
      "name": "ERC1155InvalidApprover",
      "type": "error"
    },
    {
      "inputs": [
        {
          "internalType": "uint256",
          "name": "idsLength",
          "type": "uint256"
        },
        {
          "internalType": "uint256",
          "name": "valuesLength",
          "type": "uint256"
        }
      ],
      "name": "ERC1155InvalidArrayLength",
      "type": "error"
    },
    {
      "inputs": [
        {
          "internalType": "address",
          "name": "operator",
          "type": "address"
        }
      ],
      "name": "ERC1155InvalidOperator",
      "type": "error"
    },
    {
      "inputs": [
        {
          "internalType": "address",
          "name": "receiver",
          "type": "address"
        }
      ],
      "name": "ERC1155InvalidReceiver",
      "type": "error"
    },
    {
      "inputs": [
        {
          "internalType": "address",
          "name": "sender",
          "type": "address"
        }
      ],
      "name": "ERC1155InvalidSender",
      "type": "error"
    },
    {
      "inputs": [
        {
          "internalType": "address",
          "name": "operator",
          "type": "address"
        },
        {
          "internalType": "address",
          "name": "owner",
          "type": "address"
        }
      ],
      "name": "ERC1155MissingApprovalForAll",
      "type": "error"
    },
    {
      "inputs": [
        {
          "internalType": "uint256",
          "name": "badgeId",
          "type": "uint256"
        }
      ],
      "name": "InvalidBadgeId",
      "type": "error"
    },
    {
      "inputs": [
        {
          "internalType": "address",
          "name": "owner",
          "type": "address"
        }
      ],
      "name": "OwnableInvalidOwner",
      "type": "error"
    },
    {
      "inputs": [
        {
          "internalType": "address",
          "name": "account",
          "type": "address"
        }
      ],
      "name": "OwnableUnauthorizedAccount",
      "type": "error"
    },
    {
      "anonymous": false,
      "inputs": [
        {
          "indexed": true,
          "internalType": "address",
          "name": "account",
          "type": "address"
        },
        {
          "indexed": true,
          "internalType": "address",
          "name": "operator",
          "type": "address"
        },
        {
          "indexed": false,
          "internalType": "bool",
          "name": "approved",
          "type": "bool"
        }
      ],
      "name": "ApprovalForAll",
      "type": "event"
    },
    {
      "anonymous": false,
      "inputs": [
        {
          "indexed": true,
          "internalType": "address",
          "name": "user",
          "type": "address"
        },
        {
          "indexed": true,
          "internalType": "uint256",
          "name": "badgeId",
          "type": "uint256"
        }
      ],
      "name": "BadgeMinted",
      "type": "event"
    },
    {
      "anonymous": false,
      "inputs": [
        {
          "indexed": true,
          "internalType": "address",
          "name": "previousOwner",
          "type": "address"
        },
        {
          "indexed": true,
          "internalType": "address",
          "name": "newOwner",
          "type": "address"
        }
      ],
      "name": "OwnershipTransferred",
      "type": "event"
    },
    {
      "anonymous": false,
      "inputs": [
        {
          "indexed": true,
          "internalType": "address",
          "name": "operator",
          "type": "address"
        },
        {
          "indexed": true,
          "internalType": "address",
          "name": "from",
          "type": "address"
        },
        {
          "indexed": true,
          "internalType": "address",
          "name": "to",
          "type": "address"
        },
        {
          "indexed": false,
          "internalType": "uint256[]",
          "name": "ids",
          "type": "uint256[]"
        },
        {
          "indexed": false,
          "internalType": "uint256[]",
          "name": "values",
          "type": "uint256[]"
        }
      ],
      "name": "TransferBatch",
      "type": "event"
    },
    {
      "anonymous": false,
      "inputs": [
        {
          "indexed": true,
          "internalType": "address",
          "name": "operator",
          "type": "address"
        },
        {
          "indexed": true,
          "internalType": "address",
          "name": "from",
          "type": "address"
        },
        {
          "indexed": true,
          "internalType": "address",
          "name": "to",
          "type": "address"
        },
        {
          "indexed": false,
          "internalType": "uint256",
          "name": "id",
          "type": "uint256"
        },
        {
          "indexed": false,
          "internalType": "uint256",
          "name": "value",
          "type": "uint256"
        }
      ],
      "name": "TransferSingle",
      "type": "event"
    },
    {
      "anonymous": false,
      "inputs": [
        {
          "indexed": false,
          "internalType": "string",
          "name": "value",
          "type": "string"
        },
        {
          "indexed": true,
          "internalType": "uint256",
          "name": "id",
          "type": "uint256"
        }
      ],
      "name": "URI",
      "type": "event"
    },
    {
      "inputs": [],
      "name": "CONTRACT_NAME",
      "outputs": [
        {
          "internalType": "string",
          "name": "",
          "type": "string"
        }
      ],
      "stateMutability": "view",
      "type": "function"
    },
    {
      "inputs": [],
      "name": "FIRST_QUEST_COMPLETED",
      "outputs": [
        {
          "internalType": "uint256",
          "name": "",
          "type": "uint256"
        }
      ],
      "stateMutability": "view",
      "type": "function"
    },
    {
      "inputs": [],
      "name": "GOLDEN_TREASURER",
      "outputs": [
        {
          "internalType": "uint256",
          "name": "",
          "type": "uint256"
        }
      ],
      "stateMutability": "view",
      "type": "function"
    },
    {
      "inputs": [],
      "name": "SILVER_TREASURER",
      "outputs": [
        {
          "internalType": "uint256",
          "name": "",
          "type": "uint256"
        }
      ],
      "stateMutability": "view",
      "type": "function"
    },
    {
      "inputs": [],
      "name": "TREASURE_GUARDIAN",
      "outputs": [
        {
          "internalType": "uint256",
          "name": "",
          "type": "uint256"
        }
      ],
      "stateMutability": "view",
      "type": "function"
    },
    {
      "inputs": [],
      "name": "TRIAL_PASSED",
      "outputs": [
        {
          "internalType": "uint256",
          "name": "",
          "type": "uint256"
        }
      ],
      "stateMutability": "view",
      "type": "function"
    },
    {
      "inputs": [
        {
          "internalType": "uint256",
          "name": "badgeId",
          "type": "uint256"
        }
      ],
      "name": "badgeName",
      "outputs": [
        {
          "internalType": "string",
          "name": "",
          "type": "string"
        }
      ],
      "stateMutability": "view",
      "type": "function"
    },
    {
      "inputs": [
        {
          "internalType": "address",
          "name": "account",
          "type": "address"
        },
        {
          "internalType": "uint256",
          "name": "id",
          "type": "uint256"
        }
      ],
      "name": "balanceOf",
      "outputs": [
        {
          "internalType": "uint256",
          "name": "",
          "type": "uint256"
        }
      ],
      "stateMutability": "view",
      "type": "function"
    },
    {
      "inputs": [
        {
          "internalType": "address[]",
          "name": "accounts",
          "type": "address[]"
        },
        {
          "internalType": "uint256[]",
          "name": "ids",
          "type": "uint256[]"
        }
      ],
      "name": "balanceOfBatch",
      "outputs": [
        {
          "internalType": "uint256[]",
          "name": "",
          "type": "uint256[]"
        }
      ],
      "stateMutability": "view",
      "type": "function"
    },
    {
      "inputs": [
        {
          "internalType": "address",
          "name": "user",
          "type": "address"
        },
        {
          "internalType": "uint256",
          "name": "badgeId",
          "type": "uint256"
        }
      ],
      "name": "hasBadge",
      "outputs": [
        {
          "internalType": "bool",
          "name": "",
          "type": "bool"
        }
      ],
      "stateMutability": "view",
      "type": "function"
    },
    {
      "inputs": [
        {
          "internalType": "address",
          "name": "account",
          "type": "address"
        },
        {
          "internalType": "address",
          "name": "operator",
          "type": "address"
        }
      ],
      "name": "isApprovedForAll",
      "outputs": [
        {
          "internalType": "bool",
          "name": "",
          "type": "bool"
        }
      ],
      "stateMutability": "view",
      "type": "function"
    },
    {
      "inputs": [
        {
          "internalType": "address",
          "name": "to",
          "type": "address"
        },
        {
          "internalType": "uint256",
          "name": "badgeId",
          "type": "uint256"
        }
      ],
      "name": "mintBadge",
      "outputs": [],
      "stateMutability": "nonpayable",
      "type": "function"
    },
    {
      "inputs": [],
      "name": "owner",
      "outputs": [
        {
          "internalType": "address",
          "name": "",
          "type": "address"
        }
      ],
      "stateMutability": "view",
      "type": "function"
    },
    {
      "inputs": [],
      "name": "renounceOwnership",
      "outputs": [],
      "stateMutability": "nonpayable",
      "type": "function"
    },
    {
      "inputs": [
        {
          "internalType": "address",
          "name": "from",
          "type": "address"
        },
        {
          "internalType": "address",
          "name": "to",
          "type": "address"
        },
        {
          "internalType": "uint256[]",
          "name": "ids",
          "type": "uint256[]"
        },
        {
          "internalType": "uint256[]",
          "name": "values",
          "type": "uint256[]"
        },
        {
          "internalType": "bytes",
          "name": "data",
          "type": "bytes"
        }
      ],
      "name": "safeBatchTransferFrom",
      "outputs": [],
      "stateMutability": "nonpayable",
      "type": "function"
    },
    {
      "inputs": [
        {
          "internalType": "address",
          "name": "from",
          "type": "address"
        },
        {
          "internalType": "address",
          "name": "to",
          "type": "address"
        },
        {
          "internalType": "uint256",
          "name": "id",
          "type": "uint256"
        },
        {
          "internalType": "uint256",
          "name": "value",
          "type": "uint256"
        },
        {
          "internalType": "bytes",
          "name": "data",
          "type": "bytes"
        }
      ],
      "name": "safeTransferFrom",
      "outputs": [],
      "stateMutability": "nonpayable",
      "type": "function"
    },
    {
      "inputs": [
        {
          "internalType": "address",
          "name": "operator",
          "type": "address"
        },
        {
          "internalType": "bool",
          "name": "approved",
          "type": "bool"
        }
      ],
      "name": "setApprovalForAll",
      "outputs": [],
      "stateMutability": "nonpayable",
      "type": "function"
    },
    {
      "inputs": [
        {
          "internalType": "string",
          "name": "newBaseMetadataURI",
          "type": "string"
        }
      ],
      "name": "setBaseMetadataURI",
      "outputs": [],
      "stateMutability": "nonpayable",
      "type": "function"
    },
    {
      "inputs": [
        {
          "internalType": "bytes4",
          "name": "interfaceId",
          "type": "bytes4"
        }
      ],
      "name": "supportsInterface",
      "outputs": [
        {
          "internalType": "bool",
          "name": "",
          "type": "bool"
        }
      ],
      "stateMutability": "view",
      "type": "function"
    },
    {
      "inputs": [
        {
          "internalType": "address",
          "name": "newOwner",
          "type": "address"
        }
      ],
      "name": "transferOwnership",
      "outputs": [],
      "stateMutability": "nonpayable",
      "type": "function"
    },
    {
      "inputs": [
        {
          "internalType": "uint256",
          "name": "badgeId",
          "type": "uint256"
        }
      ],
      "name": "uri",
      "outputs": [
        {
          "internalType": "string",
          "name": "",
          "type": "string"
        }
      ],
      "stateMutability": "view",
      "type": "function"
    }
  ],
  "bytecode": "0x608060405234801561000f575f5ffd5b50604051611d78380380611d7883398101604081905261002e916102ef565b60408051602081019091525f815233906100478161027a565b506001600160a01b03811661007557604051631e4fbdf760e01b81525f600482015260240160405180910390fd5b61007e8161028a565b50600461008b8282610423565b5060408051808201909152601781527f506f637ac485746b756ac485637920536b6172626e696b00000000000000000060208083019190915260015f52600590527f1471eb6eb2c5e789fc3de43f8ce62938c7d1836ec861730447e2ada8fd81017b906100f89082610423565b5060408051808201909152601081526f53726562726e7920536b6172626e696b60801b60208083019190915260025f52600590527f89832631fb3c3307a103ba2c84ab569c64d6182a18893dcd163f0f1c2090733a906101589082610423565b5060408051808201909152600f81526e5ac5826f747920536b6172626e696b60881b60208083019190915260035f52600590527fa9bc9a3a348c357ba16b37005d7e6b3236198c0e939f4af8c5f19b8deeb8ebc0906101b79082610423565b5060408051808201909152600c81526b5072c3b36261205a64616e6160a01b60208083019190915260045f52600590527f3eec716f11ba9e820c81ca75eb978ffb45831ef8b7a53e5e422c26008e1ca6d5906102139082610423565b5060408051808201909152601081526f53747261c5bc6e696b20536b6172627560801b60208083019190915260055f81905290527f458b30c2d72bfd2c6317304a4594ecbafe5f729d3111b65fdc3a33bd48e5432d906102739082610423565b50506104dd565b60026102868282610423565b5050565b600380546001600160a01b038381166001600160a01b0319831681179093556040519116919082907f8be0079c531659141344cd1fd0a4f28419497f9722a3daafe3b4186f6b6457e0905f90a35050565b634e487b7160e01b5f52604160045260245ffd5b5f602082840312156102ff575f5ffd5b81516001600160401b03811115610314575f5ffd5b8201601f81018413610324575f5ffd5b80516001600160401b0381111561033d5761033d6102db565b604051601f8201601f19908116603f011681016001600160401b038111828210171561036b5761036b6102db565b604052818152828201602001861015610382575f5ffd5b8160208401602083015e5f91810160200191909152949350505050565b600181811c908216806103b357607f821691505b6020821081036103d157634e487b7160e01b5f52602260045260245ffd5b50919050565b601f82111561041e57805f5260205f20601f840160051c810160208510156103fc5750805b601f840160051c820191505b8181101561041b575f8155600101610408565b50505b505050565b81516001600160401b0381111561043c5761043c6102db565b6104508161044a845461039f565b846103d7565b6020601f821160018114610482575f831561046b5750848201515b5f19600385901b1c1916600184901b17845561041b565b5f84815260208120601f198516915b828110156104b15787850151825560209485019460019092019101610491565b50848210156104ce57868401515f19600387901b60f8161c191681555b50505050600190811b01905550565b61188e806104ea5f395ff3fe608060405234801561000f575f5ffd5b5060043610610131575f3560e01c80637cf7a2bb116100b4578063c809a19111610079578063c809a1911461027d578063e42bff6614610285578063e77a93b014610298578063e985e9c5146102ab578063f242432a146102e6578063f2fde38b146102f9575f5ffd5b80637cf7a2bb1461022c5780637e518ec8146102345780638da5cb5b14610247578063a22cb46514610262578063a9cc208014610275575f5ffd5b80632eb2c2d6116100fa5780632eb2c2d6146101ae5780634c6a70ce146101c35780634e1273f4146101d6578063614d08f8146101f6578063715018a614610224575f5ffd5b8062fdd58e1461013557806301ffc9a71461015b5780630e89341c1461017e57806325b5f5131461019e5780632a8e67f8146101a6575b5f5ffd5b610148610143366004611090565b61030c565b6040519081526020015b60405180910390f35b61016e6101693660046110cd565b610333565b6040519015158152602001610152565b61019161018c3660046110ef565b610382565b6040516101529190611134565b610148600481565b610148600381565b6101c16101bc366004611281565b6103bf565b005b61016e6101d1366004611090565b6103de565b6101e96101e436600461132d565b6103fb565b6040516101529190611428565b6101916040518060400160405280600f81526020016e536b6172626e696b2042616467657360881b81525081565b6101c16104ca565b610148600281565b6101c161024236600461143a565b6104dd565b6003546040516001600160a01b039091168152602001610152565b6101c16102703660046114a6565b6104f7565b610148600581565b610148600181565b6101c1610293366004611090565b610506565b6101916102a63660046110ef565b6105a7565b61016e6102b93660046114df565b6001600160a01b039182165f90815260016020908152604080832093909416825291909152205460ff1690565b6101c16102f4366004611510565b61064d565b6101c1610307366004611563565b610663565b5f818152602081815260408083206001600160a01b03861684529091529020545b92915050565b5f6001600160e01b03198216636cdb3d1360e11b148061036357506001600160e01b031982166303a24d0760e21b145b8061032d57506301ffc9a760e01b6001600160e01b031983161461032d565b606061038d826106a0565b6004610398836106d0565b6040516020016103a99291906115b4565b6040516020818303038152906040529050919050565b6103ca335b8661075f565b6103d785858585856107d7565b5050505050565b5f6103e8826106a0565b5f6103f3848461030c565b119392505050565b606081518351146104315781518351604051635b05999160e01b8152600481019290925260248201526044015b60405180910390fd5b5f83516001600160401b0381111561044b5761044b611146565b604051908082528060200260200182016040528015610474578160200160208202803683370190505b5090505f5b84518110156104c25760208082028601015161049d9060208084028701015161030c565b8282815181106104af576104af61163f565b6020908102919091010152600101610479565b509392505050565b6104d2610837565b6104db5f610864565b565b6104e5610837565b60046104f2828483611697565b505050565b6105023383836108b5565b5050565b61050e610837565b610517816106a0565b5f610522838361030c565b111561055357604051634daab6e160e11b81526001600160a01b038316600482015260248101829052604401610428565b61056e8282600160405180602001604052805f815250610972565b60405181906001600160a01b038416907fc5e5b314108c1f776c2302351b8278910ddb812b122b2717b1bc973146145e9a905f90a35050565b60606105b2826106a0565b5f82815260056020526040902080546105ca9061157c565b80601f01602080910402602001604051908101604052809291908181526020018280546105f69061157c565b80156106415780601f1061061857610100808354040283529160200191610641565b820191905f5260205f20905b81548152906001019060200180831161062457829003601f168201915b50505050509050919050565b610656336103c4565b6103d785858585856109d6565b61066b610837565b6001600160a01b03811661069457604051631e4fbdf760e01b81525f6004820152602401610428565b61069d81610864565b50565b60018110806106af5750600581115b1561069d576040516328d1e68960e21b815260048101829052602401610428565b60605f6106dc83610a63565b60010190505f816001600160401b038111156106fa576106fa611146565b6040519080825280601f01601f191660200182016040528015610724576020820181803683370190505b5090508181016020015b5f19016f181899199a1a9b1b9c1cb0b131b232b360811b600a86061a8153600a850494508461072e57509392505050565b816001600160a01b0316816001600160a01b0316141580156107a657506001600160a01b038082165f9081526001602090815260408083209386168352929052205460ff16155b156105025760405163711bec9160e11b81526001600160a01b03808416600483015282166024820152604401610428565b6001600160a01b03841661080057604051632bfa23e760e11b81525f6004820152602401610428565b6001600160a01b03851661082857604051626a0d4560e21b81525f6004820152602401610428565b6103d785858585856001610b3a565b6003546001600160a01b031633146104db5760405163118cdaa760e01b8152336004820152602401610428565b600380546001600160a01b038381166001600160a01b0319831681179093556040519116919082907f8be0079c531659141344cd1fd0a4f28419497f9722a3daafe3b4186f6b6457e0905f90a35050565b6001600160a01b0383166108de57604051631f18c42760e11b81525f6004820152602401610428565b6001600160a01b0382166109065760405162ced3e160e81b81525f6004820152602401610428565b6001600160a01b038381165f81815260016020908152604080832094871680845294825291829020805460ff191686151590811790915591519182527f17307eab39ab6107e8899845ad3d59bd9653f200f220920489ca2b5937696c31910160405180910390a3505050565b6001600160a01b03841661099b57604051632bfa23e760e11b81525f6004820152602401610428565b604080516001808252602082018690528183019081526060820185905260808201909252906109ce5f8784848784610b3a565b505050505050565b6001600160a01b0384166109ff57604051632bfa23e760e11b81525f6004820152602401610428565b6001600160a01b038516610a2757604051626a0d4560e21b81525f6004820152602401610428565b60408051600180825260208201869052818301908152606082018590526080820190925290610a5a87878484875f610b3a565b50505050505050565b5f8072184f03e93ff9f4daa797ed6e38ed64bf6a1f0160401b8310610aa15772184f03e93ff9f4daa797ed6e38ed64bf6a1f0160401b830492506040015b6d04ee2d6d415b85acef81000000008310610acd576d04ee2d6d415b85acef8100000000830492506020015b662386f26fc100008310610aeb57662386f26fc10000830492506010015b6305f5e1008310610b03576305f5e100830492506008015b6127108310610b1757612710830492506004015b60648310610b29576064830492506002015b600a831061032d5760010192915050565b610b4686868686610b92565b6001600160a01b038516156109ce57338115610b6f57610b6a818888888888610c5e565b610a5a565b60208581015190850151610b87838a8a85858a610d7f565b505050505050505050565b610b9e84848484610e66565b6001600160a01b03831615610c585781515f5b818110156109ce575f838281518110610bcc57610bcc61163f565b6020026020010151118015610c0357506001610c0186868481518110610bf457610bf461163f565b602002602001015161030c565b115b15610c505784848281518110610c1b57610c1b61163f565b6020908102919091010151604051634daab6e160e11b81526001600160a01b0390921660048301526024820152604401610428565b600101610bb1565b50505050565b6001600160a01b0384163b156109ce5760405163bc197c8160e01b81526001600160a01b0385169063bc197c8190610ca29089908990889088908890600401611750565b6020604051808303815f875af1925050508015610cdc575060408051601f3d908101601f19168201909252610cd9918101906117ad565b60015b610d43573d808015610d09576040519150601f19603f3d011682016040523d82523d5f602084013e610d0e565b606091505b5080515f03610d3b57604051632bfa23e760e11b81526001600160a01b0386166004820152602401610428565b805160208201fd5b6001600160e01b0319811663bc197c8160e01b14610a5a57604051632bfa23e760e11b81526001600160a01b0386166004820152602401610428565b6001600160a01b0384163b156109ce5760405163f23a6e6160e01b81526001600160a01b0385169063f23a6e6190610dc390899089908890889088906004016117c8565b6020604051808303815f875af1925050508015610dfd575060408051601f3d908101601f19168201909252610dfa918101906117ad565b60015b610e2a573d808015610d09576040519150601f19603f3d011682016040523d82523d5f602084013e610d0e565b6001600160e01b0319811663f23a6e6160e01b14610a5a57604051632bfa23e760e11b81526001600160a01b0386166004820152602401610428565b8051825114610e955781518151604051635b05999160e01b815260048101929092526024820152604401610428565b335f5b8351811015610f97576020818102858101820151908501909101516001600160a01b03881615610f49575f828152602081815260408083206001600160a01b038c16845290915290205481811015610f23576040516303dee4c560e01b81526001600160a01b038a166004820152602481018290526044810183905260648101849052608401610428565b5f838152602081815260408083206001600160a01b038d16845290915290209082900390555b6001600160a01b03871615610f8d575f828152602081815260408083206001600160a01b038b16845290915281208054839290610f8790849061180c565b90915550505b5050600101610e98565b5082516001036110175760208301515f906020840151909150856001600160a01b0316876001600160a01b0316846001600160a01b03167fc3d58168c5ae7397731d063d5bbf3d657854427343f4c083240f7aacaa2d0f628585604051611008929190918252602082015260400190565b60405180910390a450506103d7565b836001600160a01b0316856001600160a01b0316826001600160a01b03167f4a39dc06d4c0dbc64b70af90fd698a233a518aa5d07e595d983b8c0526c8f7fb868660405161106692919061182b565b60405180910390a45050505050565b80356001600160a01b038116811461108b575f5ffd5b919050565b5f5f604083850312156110a1575f5ffd5b6110aa83611075565b946020939093013593505050565b6001600160e01b03198116811461069d575f5ffd5b5f602082840312156110dd575f5ffd5b81356110e8816110b8565b9392505050565b5f602082840312156110ff575f5ffd5b5035919050565b5f81518084528060208401602086015e5f602082860101526020601f19601f83011685010191505092915050565b602081525f6110e86020830184611106565b634e487b7160e01b5f52604160045260245ffd5b604051601f8201601f191681016001600160401b038111828210171561118257611182611146565b604052919050565b5f6001600160401b038211156111a2576111a2611146565b5060051b60200190565b5f82601f8301126111bb575f5ffd5b81356111ce6111c98261118a565b61115a565b8082825260208201915060208360051b8601019250858311156111ef575f5ffd5b602085015b8381101561120c5780358352602092830192016111f4565b5095945050505050565b5f82601f830112611225575f5ffd5b81356001600160401b0381111561123e5761123e611146565b611251601f8201601f191660200161115a565b818152846020838601011115611265575f5ffd5b816020850160208301375f918101602001919091529392505050565b5f5f5f5f5f60a08688031215611295575f5ffd5b61129e86611075565b94506112ac60208701611075565b935060408601356001600160401b038111156112c6575f5ffd5b6112d2888289016111ac565b93505060608601356001600160401b038111156112ed575f5ffd5b6112f9888289016111ac565b92505060808601356001600160401b03811115611314575f5ffd5b61132088828901611216565b9150509295509295909350565b5f5f6040838503121561133e575f5ffd5b82356001600160401b03811115611353575f5ffd5b8301601f81018513611363575f5ffd5b80356113716111c98261118a565b8082825260208201915060208360051b850101925087831115611392575f5ffd5b6020840193505b828410156113bb576113aa84611075565b825260209384019390910190611399565b945050505060208301356001600160401b038111156113d8575f5ffd5b6113e4858286016111ac565b9150509250929050565b5f8151808452602084019350602083015f5b8281101561141e578151865260209586019590910190600101611400565b5093949350505050565b602081525f6110e860208301846113ee565b5f5f6020838503121561144b575f5ffd5b82356001600160401b03811115611460575f5ffd5b8301601f81018513611470575f5ffd5b80356001600160401b03811115611485575f5ffd5b856020828401011115611496575f5ffd5b6020919091019590945092505050565b5f5f604083850312156114b7575f5ffd5b6114c083611075565b9150602083013580151581146114d4575f5ffd5b809150509250929050565b5f5f604083850312156114f0575f5ffd5b6114f983611075565b915061150760208401611075565b90509250929050565b5f5f5f5f5f60a08688031215611524575f5ffd5b61152d86611075565b945061153b60208701611075565b9350604086013592506060860135915060808601356001600160401b03811115611314575f5ffd5b5f60208284031215611573575f5ffd5b6110e882611075565b600181811c9082168061159057607f821691505b6020821081036115ae57634e487b7160e01b5f52602260045260245ffd5b50919050565b5f5f84546115c18161157c565b6001821680156115d857600181146115ed5761161a565b60ff198316865281151582028601935061161a565b875f5260205f205f5b83811015611612578154888201526001909101906020016115f6565b505081860193505b50505083518060208601835e64173539b7b760d91b9101908152600501949350505050565b634e487b7160e01b5f52603260045260245ffd5b601f8211156104f257805f5260205f20601f840160051c810160208510156116785750805b601f840160051c820191505b818110156103d7575f8155600101611684565b6001600160401b038311156116ae576116ae611146565b6116c2836116bc835461157c565b83611653565b5f601f8411600181146116f3575f85156116dc5750838201355b5f19600387901b1c1916600186901b1783556103d7565b5f83815260208120601f198716915b828110156117225786850135825560209485019460019092019101611702565b508682101561173e575f1960f88860031b161c19848701351681555b505060018560011b0183555050505050565b6001600160a01b0386811682528516602082015260a0604082018190525f9061177b908301866113ee565b828103606084015261178d81866113ee565b905082810360808401526117a18185611106565b98975050505050505050565b5f602082840312156117bd575f5ffd5b81516110e8816110b8565b6001600160a01b03868116825285166020820152604081018490526060810183905260a0608082018190525f9061180190830184611106565b979650505050505050565b8082018082111561032d57634e487b7160e01b5f52601160045260245ffd5b604081525f61183d60408301856113ee565b828103602084015261184f81856113ee565b9594505050505056fea264697066735822122027e0d2e600905aeaba626eca69c3747c892a42274be86d0f72f29dda7e1dc5e164736f6c634300081c0033",
  "linkReferences": {},
  "deployedLinkReferences": {}
}